{
  "contractName": "TokenFarm",
  "abi": [
    {
      "inputs": [
        {
          "internalType": "contract DappToken",
          "name": "_dappToken",
          "type": "address"
        },
        {
          "internalType": "contract DaiToken",
          "name": "_daiToken",
          "type": "address"
        },
        {
          "internalType": "contract EthToken",
          "name": "_ethToken",
          "type": "address"
        },
        {
          "internalType": "contract BlToken",
          "name": "_blToken",
          "type": "address"
        },
        {
          "internalType": "contract OpToken",
          "name": "_opToken",
          "type": "address"
        }
      ],
      "payable": false,
      "stateMutability": "nonpayable",
      "type": "constructor"
    },
    {
      "anonymous": false,
      "inputs": [
        {
          "indexed": false,
          "internalType": "string",
          "name": "msg",
          "type": "string"
        }
      ],
      "name": "Error",
      "type": "event"
    },
    {
      "anonymous": false,
      "inputs": [
        {
          "indexed": false,
          "internalType": "uint256",
          "name": "reward",
          "type": "uint256"
        }
      ],
      "name": "TokenLended",
      "type": "event"
    },
    {
      "anonymous": false,
      "inputs": [
        {
          "indexed": false,
          "internalType": "bool",
          "name": "success",
          "type": "bool"
        },
        {
          "indexed": false,
          "internalType": "uint256",
          "name": "retriveAmount",
          "type": "uint256"
        }
      ],
      "name": "TokenRetrieved",
      "type": "event"
    },
    {
      "constant": true,
      "inputs": [],
      "name": "apyDigits",
      "outputs": [
        {
          "internalType": "uint256",
          "name": "",
          "type": "uint256"
        }
      ],
      "payable": false,
      "stateMutability": "view",
      "type": "function"
    },
    {
      "constant": true,
      "inputs": [],
      "name": "blToken",
      "outputs": [
        {
          "internalType": "contract BlToken",
          "name": "",
          "type": "address"
        }
      ],
      "payable": false,
      "stateMutability": "view",
      "type": "function"
    },
    {
      "constant": true,
      "inputs": [
        {
          "internalType": "string",
          "name": "",
          "type": "string"
        }
      ],
      "name": "borrowApy",
      "outputs": [
        {
          "internalType": "uint256",
          "name": "",
          "type": "uint256"
        }
      ],
      "payable": false,
      "stateMutability": "view",
      "type": "function"
    },
    {
      "constant": true,
      "inputs": [],
      "name": "daiToken",
      "outputs": [
        {
          "internalType": "contract DaiToken",
          "name": "",
          "type": "address"
        }
      ],
      "payable": false,
      "stateMutability": "view",
      "type": "function"
    },
    {
      "constant": true,
      "inputs": [],
      "name": "dappToken",
      "outputs": [
        {
          "internalType": "contract DappToken",
          "name": "",
          "type": "address"
        }
      ],
      "payable": false,
      "stateMutability": "view",
      "type": "function"
    },
    {
      "constant": true,
      "inputs": [],
      "name": "ethToken",
      "outputs": [
        {
          "internalType": "contract EthToken",
          "name": "",
          "type": "address"
        }
      ],
      "payable": false,
      "stateMutability": "view",
      "type": "function"
    },
    {
      "constant": true,
      "inputs": [
        {
          "internalType": "uint256",
          "name": "",
          "type": "uint256"
        }
      ],
      "name": "mockTokens",
      "outputs": [
        {
          "internalType": "string",
          "name": "",
          "type": "string"
        }
      ],
      "payable": false,
      "stateMutability": "view",
      "type": "function"
    },
    {
      "constant": true,
      "inputs": [],
      "name": "name",
      "outputs": [
        {
          "internalType": "string",
          "name": "",
          "type": "string"
        }
      ],
      "payable": false,
      "stateMutability": "view",
      "type": "function"
    },
    {
      "constant": true,
      "inputs": [],
      "name": "opToken",
      "outputs": [
        {
          "internalType": "contract OpToken",
          "name": "",
          "type": "address"
        }
      ],
      "payable": false,
      "stateMutability": "view",
      "type": "function"
    },
    {
      "constant": true,
      "inputs": [
        {
          "internalType": "address",
          "name": "",
          "type": "address"
        },
        {
          "internalType": "string",
          "name": "",
          "type": "string"
        }
      ],
      "name": "stakingBalance",
      "outputs": [
        {
          "internalType": "uint256",
          "name": "",
          "type": "uint256"
        }
      ],
      "payable": false,
      "stateMutability": "view",
      "type": "function"
    },
    {
      "constant": true,
      "inputs": [
        {
          "internalType": "string",
          "name": "",
          "type": "string"
        }
      ],
      "name": "supplyApy",
      "outputs": [
        {
          "internalType": "uint256",
          "name": "",
          "type": "uint256"
        }
      ],
      "payable": false,
      "stateMutability": "view",
      "type": "function"
    },
    {
      "constant": true,
      "inputs": [],
      "name": "tokenDigits",
      "outputs": [
        {
          "internalType": "uint256",
          "name": "",
          "type": "uint256"
        }
      ],
      "payable": false,
      "stateMutability": "view",
      "type": "function"
    },
    {
      "constant": false,
      "inputs": [
        {
          "internalType": "uint256",
          "name": "_amount",
          "type": "uint256"
        },
        {
          "internalType": "string",
          "name": "tokenToStake",
          "type": "string"
        }
      ],
      "name": "stakeTokens",
      "outputs": [
        {
          "internalType": "uint256",
          "name": "rewardToken",
          "type": "uint256"
        }
      ],
      "payable": false,
      "stateMutability": "nonpayable",
      "type": "function"
    },
    {
      "constant": false,
      "inputs": [
        {
          "internalType": "uint256",
          "name": "_amount",
          "type": "uint256"
        },
        {
          "internalType": "string",
          "name": "tokenToUnStake",
          "type": "string"
        }
      ],
      "name": "dappRequireToUnstake",
      "outputs": [
        {
          "internalType": "uint256",
          "name": "retrivalAmount",
          "type": "uint256"
        }
      ],
      "payable": false,
      "stateMutability": "nonpayable",
      "type": "function"
    },
    {
      "constant": false,
      "inputs": [
        {
          "internalType": "uint256",
          "name": "_amount",
          "type": "uint256"
        },
        {
          "internalType": "string",
          "name": "tokenToUnStake",
          "type": "string"
        }
      ],
      "name": "unstakeTokens",
      "outputs": [],
      "payable": false,
      "stateMutability": "nonpayable",
      "type": "function"
    }
  ],
  "bytecode": "0x60806040526040518060400160405280600f81526020017f4461707020546f6b656e204661726d00000000000000000000000000000000008152506000908051906020019062000051929190620003ba565b5060405180608001604052806040518060400160405280600481526020017f6d4441490000000000000000000000000000000000000000000000000000000081525081526020016040518060400160405280600481526020017f6d4554480000000000000000000000000000000000000000000000000000000081525081526020016040518060400160405280600381526020017f6d424c000000000000000000000000000000000000000000000000000000000081525081526020016040518060400160405280600381526020017f6d4f50000000000000000000000000000000000000000000000000000000000081525081525060079060046200015992919062000441565b50620186a0600e55670de0b6b3a7640000600f553480156200017a57600080fd5b5060405162002546380380620025468339818101604052620001a091908101906200063a565b84600160006101000a81548173ffffffffffffffffffffffffffffffffffffffff021916908373ffffffffffffffffffffffffffffffffffffffff16021790555083600260006101000a81548173ffffffffffffffffffffffffffffffffffffffff021916908373ffffffffffffffffffffffffffffffffffffffff16021790555082600360006101000a81548173ffffffffffffffffffffffffffffffffffffffff021916908373ffffffffffffffffffffffffffffffffffffffff16021790555081600460006101000a81548173ffffffffffffffffffffffffffffffffffffffff021916908373ffffffffffffffffffffffffffffffffffffffff16021790555080600560006101000a81548173ffffffffffffffffffffffffffffffffffffffff021916908373ffffffffffffffffffffffffffffffffffffffff16021790555033600660006101000a81548173ffffffffffffffffffffffffffffffffffffffff021916908373ffffffffffffffffffffffffffffffffffffffff16021790555060008090505b6004811015620003ae57614e20600c600783600481106200034957fe5b0160405162000359919062000756565b908152602001604051809103902081905550617530600d600783600481106200037e57fe5b016040516200038e919062000756565b90815260200160405180910390208190555080806001019150506200032c565b505050505050620008a9565b828054600181600116156101000203166002900490600052602060002090601f016020900481019282601f10620003fd57805160ff19168380011785556200042e565b828001600101855582156200042e579182015b828111156200042d57825182559160200191906001019062000410565b5b5090506200043d91906200049b565b5090565b826004810192821562000488579160200282015b828111156200048757825182908051906020019062000476929190620004c3565b509160200191906001019062000455565b5b5090506200049791906200054a565b5090565b620004c091905b80821115620004bc576000816000905550600101620004a2565b5090565b90565b828054600181600116156101000203166002900490600052602060002090601f016020900481019282601f106200050657805160ff191683800117855562000537565b8280016001018555821562000537579182015b828111156200053657825182559160200191906001019062000519565b5b5090506200054691906200049b565b5090565b6200057891905b808211156200057457600081816200056a91906200057b565b5060010162000551565b5090565b90565b50805460018160011615610100020316600290046000825580601f10620005a35750620005c4565b601f016020900490600052602060002090810190620005c391906200049b565b5b50565b600081519050620005d88162000827565b92915050565b600081519050620005ef8162000841565b92915050565b60008151905062000606816200085b565b92915050565b6000815190506200061d8162000875565b92915050565b60008151905062000634816200088f565b92915050565b600080600080600060a086880312156200065357600080fd5b60006200066388828901620005f5565b95505060206200067688828901620005de565b945050604062000689888289016200060c565b93505060606200069c88828901620005c7565b9250506080620006af8882890162000623565b9150509295509295909350565b600081546001811660008114620006dc576001811462000704576200074e565b607f6002830416620006ef818762000784565b955060ff19831686528086019350506200074e565b6002820462000714818762000784565b955062000721856200076f565b60005b82811015620007455781548189015260018201915060208101905062000724565b82880195505050505b505092915050565b6000620007648284620006bc565b915081905092915050565b60008190508160005260206000209050919050565b600081905092915050565b60006200079c8262000807565b9050919050565b6000620007b0826200078f565b9050919050565b6000620007c4826200078f565b9050919050565b6000620007d8826200078f565b9050919050565b6000620007ec826200078f565b9050919050565b600062000800826200078f565b9050919050565b600073ffffffffffffffffffffffffffffffffffffffff82169050919050565b6200083281620007a3565b81146200083e57600080fd5b50565b6200084c81620007b7565b81146200085857600080fd5b50565b6200086681620007cb565b81146200087257600080fd5b50565b6200088081620007df565b81146200088c57600080fd5b50565b6200089a81620007f3565b8114620008a657600080fd5b50565b611c8d80620008b96000396000f3fe608060405234801561001057600080fd5b50600436106100f55760003560e01c806357eb184611610097578063a53aa4be11610066578063a53aa4be1461028c578063be22f546146102bc578063fb03380c146102da578063ff33e2941461030a576100f5565b806357eb1846146102025780635eb186f81461022057806366df2db01461023e5780637bf1a6271461026e576100f5565b80633a89df44116100d35780633a89df4414610178578063493b0bea146101965780634acd1722146101b457806351a0d032146101e4576100f5565b806306fdde03146100fa5780630989b865146101185780630d9a941114610148575b600080fd5b610102610326565b60405161010f9190611937565b60405180910390f35b610132600480360361012d91908101906114ed565b6103c4565b60405161013f9190611937565b60405180910390f35b610162600480360361015d919081019061153f565b610474565b60405161016f9190611999565b60405180910390f35b610180610a90565b60405161018d919061191c565b60405180910390f35b61019e610ab6565b6040516101ab9190611999565b60405180910390f35b6101ce60048036036101c991908101906114ac565b610abc565b6040516101db9190611999565b60405180910390f35b6101ec610aea565b6040516101f991906118b0565b60405180910390f35b61020a610b10565b6040516102179190611999565b60405180910390f35b610228610b16565b60405161023591906118e6565b60405180910390f35b6102586004803603610253919081019061142f565b610b3c565b6040516102659190611999565b60405180910390f35b610276610b77565b6040516102839190611901565b60405180910390f35b6102a660048036036102a1919081019061153f565b610b9d565b6040516102b39190611999565b60405180910390f35b6102c4610bd3565b6040516102d191906118cb565b60405180910390f35b6102f460048036036102ef91908101906114ac565b610bf9565b6040516103019190611999565b60405180910390f35b610324600480360361031f919081019061153f565b610c27565b005b60008054600181600116156101000203166002900480601f0160208091040260200160405190810160405280929190818152602001828054600181600116156101000203166002900480156103bc5780601f10610391576101008083540402835291602001916103bc565b820191906000526020600020905b81548152906001019060200180831161039f57829003601f168201915b505050505081565b600781600481106103d157fe5b016000915090508054600181600116156101000203166002900480601f01602080910402602001604051908101604052809291908181526020018280546001816001161561010002031660029004801561046c5780601f106104415761010080835404028352916020019161046c565b820191906000526020600020905b81548152906001019060200180831161044f57829003601f168201915b505050505081565b60008083116104b8576040517f08c379a00000000000000000000000000000000000000000000000000000000081526004016104af90611959565b60405180910390fd5b60076000600481106104c657fe5b016040516020016104d791906117f5565b60405160208183030381529060405280519060200120826040516020016104fe91906117de565b6040516020818303038152906040528051906020012014156105d157600260009054906101000a900473ffffffffffffffffffffffffffffffffffffffff1673ffffffffffffffffffffffffffffffffffffffff166323b872dd3330866040518463ffffffff1660e01b815260040161057993929190611827565b602060405180830381600087803b15801561059357600080fd5b505af11580156105a7573d6000803e3d6000fd5b505050506040513d601f19601f820116820180604052506105cb9190810190611483565b506108b8565b60076001600481106105df57fe5b016040516020016105f091906117f5565b604051602081830303815290604052805190602001208260405160200161061791906117de565b6040516020818303038152906040528051906020012014156106ea57600360009054906101000a900473ffffffffffffffffffffffffffffffffffffffff1673ffffffffffffffffffffffffffffffffffffffff166323b872dd3330866040518463ffffffff1660e01b815260040161069293929190611827565b602060405180830381600087803b1580156106ac57600080fd5b505af11580156106c0573d6000803e3d6000fd5b505050506040513d601f19601f820116820180604052506106e49190810190611483565b506108b7565b60076002600481106106f857fe5b0160405160200161070991906117f5565b604051602081830303815290604052805190602001208260405160200161073091906117de565b60405160208183030381529060405280519060200120141561080357600460009054906101000a900473ffffffffffffffffffffffffffffffffffffffff1673ffffffffffffffffffffffffffffffffffffffff166323b872dd3330866040518463ffffffff1660e01b81526004016107ab93929190611827565b602060405180830381600087803b1580156107c557600080fd5b505af11580156107d9573d6000803e3d6000fd5b505050506040513d601f19601f820116820180604052506107fd9190810190611483565b506108b6565b600560009054906101000a900473ffffffffffffffffffffffffffffffffffffffff1673ffffffffffffffffffffffffffffffffffffffff166323b872dd3330866040518463ffffffff1660e01b815260040161086293929190611827565b602060405180830381600087803b15801561087c57600080fd5b505af1158015610890573d6000803e3d6000fd5b505050506040513d601f19601f820116820180604052506108b49190810190611483565b505b5b5b82600b60003373ffffffffffffffffffffffffffffffffffffffff1673ffffffffffffffffffffffffffffffffffffffff1681526020019081526020016000208360405161090691906117de565b90815260200160405180910390205401600b60003373ffffffffffffffffffffffffffffffffffffffff1673ffffffffffffffffffffffffffffffffffffffff1681526020019081526020016000208360405161096391906117de565b908152602001604051809103902081905550600c8260405161098591906117de565b908152602001604051809103902054600e548402816109a057fe5b049050600160009054906101000a900473ffffffffffffffffffffffffffffffffffffffff1673ffffffffffffffffffffffffffffffffffffffff1663a9059cbb33836040518363ffffffff1660e01b8152600401610a0092919061185e565b602060405180830381600087803b158015610a1a57600080fd5b505af1158015610a2e573d6000803e3d6000fd5b505050506040513d601f19601f82011682018060405250610a529190810190611483565b507ff706192ae5871075aeabd0deba7c8994a119fb329b7ecd42221be2c6907318ac81604051610a829190611999565b60405180910390a192915050565b600560009054906101000a900473ffffffffffffffffffffffffffffffffffffffff1681565b600e5481565b600d818051602081018201805184825260208301602085012081835280955050505050506000915090505481565b600460009054906101000a900473ffffffffffffffffffffffffffffffffffffffff1681565b600f5481565b600160009054906101000a900473ffffffffffffffffffffffffffffffffffffffff1681565b600b60205281600052604060002081805160208101820180518482526020830160208501208183528095505050505050600091509150505481565b600360009054906101000a900473ffffffffffffffffffffffffffffffffffffffff1681565b6000600c82604051610baf91906117de565b908152602001604051809103902054600e54840281610bca57fe5b04905092915050565b600260009054906101000a900473ffffffffffffffffffffffffffffffffffffffff1681565b600c818051602081018201805184825260208301602085012081835280955050505050506000915090505481565b6000600c82604051610c3991906117de565b908152602001604051809103902054600e54840281610c5457fe5b0490506000600160009054906101000a900473ffffffffffffffffffffffffffffffffffffffff1673ffffffffffffffffffffffffffffffffffffffff166370a08231336040518263ffffffff1660e01b8152600401610cb4919061180c565b60206040518083038186803b158015610ccc57600080fd5b505afa158015610ce0573d6000803e3d6000fd5b505050506040513d601f19601f82011682018060405250610d049190810190611516565b905081811015610d8c577fea0dad277475f1f650692aa566fc6af2b777ca6efe1c6b08c045540a736cac63600083604051610d40929190611887565b60405180910390a181811015610d8b576040517f08c379a0000000000000000000000000000000000000000000000000000000008152600401610d8290611979565b60405180910390fd5b5b600160009054906101000a900473ffffffffffffffffffffffffffffffffffffffff1673ffffffffffffffffffffffffffffffffffffffff166323b872dd3330856040518463ffffffff1660e01b8152600401610deb93929190611827565b602060405180830381600087803b158015610e0557600080fd5b505af1158015610e19573d6000803e3d6000fd5b505050506040513d601f19601f82011682018060405250610e3d9190810190611483565b506007600060048110610e4c57fe5b01604051602001610e5d91906117f5565b6040516020818303038152906040528051906020012083604051602001610e8491906117de565b604051602081830303815290604052805190602001201415610f5557600260009054906101000a900473ffffffffffffffffffffffffffffffffffffffff1673ffffffffffffffffffffffffffffffffffffffff1663a9059cbb33866040518363ffffffff1660e01b8152600401610efd92919061185e565b602060405180830381600087803b158015610f1757600080fd5b505af1158015610f2b573d6000803e3d6000fd5b505050506040513d601f19601f82011682018060405250610f4f9190810190611483565b50611236565b6007600160048110610f6357fe5b01604051602001610f7491906117f5565b6040516020818303038152906040528051906020012083604051602001610f9b91906117de565b60405160208183030381529060405280519060200120141561106c57600360009054906101000a900473ffffffffffffffffffffffffffffffffffffffff1673ffffffffffffffffffffffffffffffffffffffff1663a9059cbb33866040518363ffffffff1660e01b815260040161101492919061185e565b602060405180830381600087803b15801561102e57600080fd5b505af1158015611042573d6000803e3d6000fd5b505050506040513d601f19601f820116820180604052506110669190810190611483565b50611235565b600760026004811061107a57fe5b0160405160200161108b91906117f5565b60405160208183030381529060405280519060200120836040516020016110b291906117de565b60405160208183030381529060405280519060200120141561118357600460009054906101000a900473ffffffffffffffffffffffffffffffffffffffff1673ffffffffffffffffffffffffffffffffffffffff1663a9059cbb33866040518363ffffffff1660e01b815260040161112b92919061185e565b602060405180830381600087803b15801561114557600080fd5b505af1158015611159573d6000803e3d6000fd5b505050506040513d601f19601f8201168201806040525061117d9190810190611483565b50611234565b600560009054906101000a900473ffffffffffffffffffffffffffffffffffffffff1673ffffffffffffffffffffffffffffffffffffffff1663a9059cbb33866040518363ffffffff1660e01b81526004016111e092919061185e565b602060405180830381600087803b1580156111fa57600080fd5b505af115801561120e573d6000803e3d6000fd5b505050506040513d601f19601f820116820180604052506112329190810190611483565b505b5b5b83600b60003373ffffffffffffffffffffffffffffffffffffffff1673ffffffffffffffffffffffffffffffffffffffff1681526020019081526020016000208460405161128491906117de565b90815260200160405180910390205403600b60003373ffffffffffffffffffffffffffffffffffffffff1673ffffffffffffffffffffffffffffffffffffffff168152602001908152602001600020846040516112e191906117de565b9081526020016040518091039020819055507fea0dad277475f1f650692aa566fc6af2b777ca6efe1c6b08c045540a736cac63600183604051611325929190611887565b60405180910390a150505050565b60008135905061134281611c05565b92915050565b60008151905061135781611c1c565b92915050565b600082601f83011261136e57600080fd5b813561138161137c826119e1565b6119b4565b9150808252602083016020830185838301111561139d57600080fd5b6113a8838284611bb2565b50505092915050565b600082601f8301126113c257600080fd5b81356113d56113d082611a0d565b6119b4565b915080825260208301602083018583830111156113f157600080fd5b6113fc838284611bb2565b50505092915050565b60008135905061141481611c33565b92915050565b60008151905061142981611c33565b92915050565b6000806040838503121561144257600080fd5b600061145085828601611333565b925050602083013567ffffffffffffffff81111561146d57600080fd5b6114798582860161135d565b9150509250929050565b60006020828403121561149557600080fd5b60006114a384828501611348565b91505092915050565b6000602082840312156114be57600080fd5b600082013567ffffffffffffffff8111156114d857600080fd5b6114e48482850161135d565b91505092915050565b6000602082840312156114ff57600080fd5b600061150d84828501611405565b91505092915050565b60006020828403121561152857600080fd5b60006115368482850161141a565b91505092915050565b6000806040838503121561155257600080fd5b600061156085828601611405565b925050602083013567ffffffffffffffff81111561157d57600080fd5b611589858286016113b1565b9150509250929050565b61159c81611ac8565b82525050565b6115ab81611a80565b82525050565b6115ba81611a92565b82525050565b6115c981611ada565b82525050565b6115d881611afe565b82525050565b6115e781611b22565b82525050565b6115f681611b46565b82525050565b61160581611b6a565b82525050565b600061161682611a59565b6116208185611a75565b9350611630818560208601611bc1565b80840191505092915050565b600061164782611a4e565b6116518185611a64565b9350611661818560208601611bc1565b61166a81611bf4565b840191505092915050565b60008154600181166000811461169257600181146116b7576116fb565b607f60028304166116a38187611a75565b955060ff19831686528086019350506116fb565b600282046116c58187611a75565b95506116d085611a39565b60005b828110156116f2578154818901526001820191506020810190506116d3565b82880195505050505b505092915050565b6000611710602783611a64565b91507f5374616b696e6720616d6f756e742073686f756c64206265206772656174657260008301527f207468616e2030000000000000000000000000000000000000000000000000006020830152604082019050919050565b6000611776602283611a64565b91507f596f7520446f6e277420686176652073756666696369656e742062616c616e6360008301527f652e0000000000000000000000000000000000000000000000000000000000006020830152604082019050919050565b6117d881611abe565b82525050565b60006117ea828461160b565b915081905092915050565b60006118018284611675565b915081905092915050565b60006020820190506118216000830184611593565b92915050565b600060608201905061183c6000830186611593565b61184960208301856115a2565b61185660408301846117cf565b949350505050565b60006040820190506118736000830185611593565b61188060208301846117cf565b9392505050565b600060408201905061189c60008301856115b1565b6118a960208301846117cf565b9392505050565b60006020820190506118c560008301846115c0565b92915050565b60006020820190506118e060008301846115cf565b92915050565b60006020820190506118fb60008301846115de565b92915050565b600060208201905061191660008301846115ed565b92915050565b600060208201905061193160008301846115fc565b92915050565b60006020820190508181036000830152611951818461163c565b905092915050565b6000602082019050818103600083015261197281611703565b9050919050565b6000602082019050818103600083015261199281611769565b9050919050565b60006020820190506119ae60008301846117cf565b92915050565b6000604051905081810181811067ffffffffffffffff821117156119d757600080fd5b8060405250919050565b600067ffffffffffffffff8211156119f857600080fd5b601f19601f8301169050602081019050919050565b600067ffffffffffffffff821115611a2457600080fd5b601f19601f8301169050602081019050919050565b60008190508160005260206000209050919050565b600081519050919050565b600081519050919050565b600082825260208201905092915050565b600081905092915050565b6000611a8b82611a9e565b9050919050565b60008115159050919050565b600073ffffffffffffffffffffffffffffffffffffffff82169050919050565b6000819050919050565b6000611ad382611b8e565b9050919050565b6000611ae582611aec565b9050919050565b6000611af782611a9e565b9050919050565b6000611b0982611b10565b9050919050565b6000611b1b82611a9e565b9050919050565b6000611b2d82611b34565b9050919050565b6000611b3f82611a9e565b9050919050565b6000611b5182611b58565b9050919050565b6000611b6382611a9e565b9050919050565b6000611b7582611b7c565b9050919050565b6000611b8782611a9e565b9050919050565b6000611b9982611ba0565b9050919050565b6000611bab82611a9e565b9050919050565b82818337600083830152505050565b60005b83811015611bdf578082015181840152602081019050611bc4565b83811115611bee576000848401525b50505050565b6000601f19601f8301169050919050565b611c0e81611a80565b8114611c1957600080fd5b50565b611c2581611a92565b8114611c3057600080fd5b50565b611c3c81611abe565b8114611c4757600080fd5b5056fea365627a7a7231582023e602ca23d544f9958df8c0b7498f1fbce7ad5b3bac1914fe959ab5d2a561456c6578706572696d656e74616cf564736f6c63430005100040",
  "source": "pragma solidity ^0.5.0;\r\npragma experimental ABIEncoderV2;\r\n\r\nimport \"./DappToken.sol\";\r\nimport \"./DaiToken.sol\";\r\nimport \"./EthToken.sol\";\r\nimport \"./BlToken.sol\";\r\nimport \"./OpToken.sol\";\r\n\r\ncontract TokenFarm {\r\n    string public name = \"Dapp Token Farm\";\r\n    DappToken public dappToken;\r\n    DaiToken public daiToken;\r\n    EthToken public ethToken;\r\n    BlToken public blToken;\r\n    OpToken public opToken;\r\n    address owner;\r\n\r\n    string[4] public mockTokens = [\"mDAI\", \"mETH\", \"mBL\", \"mOP\"];\r\n    mapping(address => mapping(string => uint)) public stakingBalance;\r\n    mapping(string => uint) public supplyApy;\r\n    mapping(string => uint) public borrowApy;\r\n    uint public apyDigits = 100000;\r\n    uint public tokenDigits = 1000000000000000000;\r\n\r\n    event Error(string msg);\r\n    event TokenLended(uint reward);\r\n    event TokenRetrieved(bool success, uint retriveAmount);\r\n\r\n    // Runs when contract is deployed\r\n    constructor(DappToken _dappToken, DaiToken _daiToken, EthToken _ethToken, BlToken _blToken, OpToken _opToken) public {\r\n        dappToken = _dappToken;\r\n        daiToken = _daiToken;\r\n        ethToken = _ethToken;\r\n        blToken = _blToken;\r\n        opToken = _opToken;\r\n        owner = msg.sender;\r\n\r\n        for(uint j=0; j<mockTokens.length; j++){\r\n            supplyApy[mockTokens[j]] = 20000;\r\n            borrowApy[mockTokens[j]] = 30000;\r\n        }\r\n    }\r\n\r\n    // Stakes mockTokens\r\n    function stakeTokens(uint _amount, string memory tokenToStake) public returns(uint rewardToken){\r\n\r\n        // Require staking amount greater than 0\r\n        require(_amount > 0, \"Staking amount should be greater than 0\");\r\n\r\n        // Transfer Mock Token to this contract for staking\r\n        if(keccak256(abi.encodePacked(tokenToStake)) == keccak256(abi.encodePacked(mockTokens[0]))){\r\n            daiToken.transferFrom(msg.sender, address(this), _amount);\r\n        }\r\n        else if(keccak256(abi.encodePacked(tokenToStake)) == keccak256(abi.encodePacked(mockTokens[1]))){\r\n            ethToken.transferFrom(msg.sender, address(this), _amount);\r\n        }\r\n        else if(keccak256(abi.encodePacked(tokenToStake)) == keccak256(abi.encodePacked(mockTokens[2]))){\r\n            blToken.transferFrom(msg.sender, address(this), _amount);\r\n        }\r\n        else{\r\n            opToken.transferFrom(msg.sender, address(this), _amount);\r\n        }\r\n\r\n\r\n        // Update Stacking Balance\r\n        stakingBalance[msg.sender][tokenToStake] = stakingBalance[msg.sender][tokenToStake] + _amount;\r\n\r\n        // Transfering Reward Dapp Token to Sender Account\r\n        rewardToken = (_amount*apyDigits)/supplyApy[tokenToStake];\r\n        dappToken.transfer(msg.sender, rewardToken);\r\n\r\n        // Emmiting reward Amount to use in frontend\r\n        emit TokenLended(rewardToken);\r\n    }\r\n\r\n    function dappRequireToUnstake(uint _amount, string memory tokenToUnStake) public returns(uint retrivalAmount){\r\n        return (_amount*apyDigits)/supplyApy[tokenToUnStake];\r\n    }\r\n\r\n    // Unstaking Token\r\n    function unstakeTokens(uint _amount, string memory tokenToUnStake) public {\r\n\r\n        // Calculating Retrival Dapp Token Amount\r\n        uint retrieveAmount = (_amount*apyDigits)/supplyApy[tokenToUnStake];\r\n\r\n        // Checking if user have sufficient dapp Amount\r\n        uint balance = dappToken.balanceOf(msg.sender);\r\n        if(balance < retrieveAmount){\r\n            emit TokenRetrieved(false, retrieveAmount);\r\n            require(balance >= retrieveAmount, \"You Don't have sufficient balance.\");\r\n        }\r\n        \r\n        // Transfering Retrival Dapp Token from Sender Account to Contract\r\n        dappToken.transferFrom(msg.sender, address(this), retrieveAmount);\r\n        \r\n\r\n\r\n        // Transfer Mock Token from this contract to Sender Account for Retrival \r\n        if(keccak256(abi.encodePacked(tokenToUnStake)) == keccak256(abi.encodePacked(mockTokens[0]))){\r\n            daiToken.transfer(msg.sender, _amount);\r\n        }\r\n        else if(keccak256(abi.encodePacked(tokenToUnStake)) == keccak256(abi.encodePacked(mockTokens[1]))){\r\n            ethToken.transfer(msg.sender, _amount);\r\n        }\r\n        else if(keccak256(abi.encodePacked(tokenToUnStake)) == keccak256(abi.encodePacked(mockTokens[2]))){\r\n            blToken.transfer(msg.sender, _amount);\r\n        }\r\n        else{\r\n            opToken.transfer(msg.sender, _amount);\r\n        }\r\n\r\n        // Reset staking balance\r\n        stakingBalance[msg.sender][tokenToUnStake] = stakingBalance[msg.sender][tokenToUnStake] - _amount;\r\n\r\n\r\n\r\n        emit TokenRetrieved(true, retrieveAmount);\r\n    }\r\n}",
  "sourcePath": "F:/Web Development (F)/web.3/Defi Lending App/src/contracts/TokenFarm.sol",
  "compiler": {
    "name": "solc",
    "version": "0.5.16+commit.9c3226ce.Emscripten.clang"
  },
  "schemaVersion": "3.2.3",
  "updatedAt": "2022-04-17T09:11:26.563Z",
  "networkType": "ethereum",
  "devdoc": {
    "methods": {}
  },
  "userdoc": {
    "methods": {}
  }
}